{
    "contractName": "credit_hours",
    "abi": [
        {
            "inputs": [
                {
                    "internalType": "string[]",
                    "name": "a",
                    "type": "string[]"
                }
            ],
            "stateMutability": "nonpayable",
            "type": "constructor"
        },
        {
            "anonymous": false,
            "inputs": [
                {
                    "indexed": true,
                    "internalType": "address",
                    "name": "account",
                    "type": "address"
                },
                {
                    "indexed": true,
                    "internalType": "address",
                    "name": "operator",
                    "type": "address"
                },
                {
                    "indexed": false,
                    "internalType": "bool",
                    "name": "approved",
                    "type": "bool"
                }
            ],
            "name": "ApprovalForAll",
            "type": "event"
        },
        {
            "anonymous": false,
            "inputs": [
                {
                    "indexed": true,
                    "internalType": "address",
                    "name": "previousOwner",
                    "type": "address"
                },
                {
                    "indexed": true,
                    "internalType": "address",
                    "name": "newOwner",
                    "type": "address"
                }
            ],
            "name": "OwnershipTransferred",
            "type": "event"
        },
        {
            "anonymous": false,
            "inputs": [
                {
                    "indexed": false,
                    "internalType": "address",
                    "name": "account",
                    "type": "address"
                }
            ],
            "name": "Paused",
            "type": "event"
        },
        {
            "anonymous": false,
            "inputs": [
                {
                    "indexed": true,
                    "internalType": "bytes32",
                    "name": "role",
                    "type": "bytes32"
                },
                {
                    "indexed": true,
                    "internalType": "bytes32",
                    "name": "previousAdminRole",
                    "type": "bytes32"
                },
                {
                    "indexed": true,
                    "internalType": "bytes32",
                    "name": "newAdminRole",
                    "type": "bytes32"
                }
            ],
            "name": "RoleAdminChanged",
            "type": "event"
        },
        {
            "anonymous": false,
            "inputs": [
                {
                    "indexed": true,
                    "internalType": "bytes32",
                    "name": "role",
                    "type": "bytes32"
                },
                {
                    "indexed": true,
                    "internalType": "address",
                    "name": "account",
                    "type": "address"
                },
                {
                    "indexed": true,
                    "internalType": "address",
                    "name": "sender",
                    "type": "address"
                }
            ],
            "name": "RoleGranted",
            "type": "event"
        },
        {
            "anonymous": false,
            "inputs": [
                {
                    "indexed": true,
                    "internalType": "bytes32",
                    "name": "role",
                    "type": "bytes32"
                },
                {
                    "indexed": true,
                    "internalType": "address",
                    "name": "account",
                    "type": "address"
                },
                {
                    "indexed": true,
                    "internalType": "address",
                    "name": "sender",
                    "type": "address"
                }
            ],
            "name": "RoleRevoked",
            "type": "event"
        },
        {
            "anonymous": false,
            "inputs": [
                {
                    "indexed": true,
                    "internalType": "address",
                    "name": "operator",
                    "type": "address"
                },
                {
                    "indexed": true,
                    "internalType": "address",
                    "name": "from",
                    "type": "address"
                },
                {
                    "indexed": true,
                    "internalType": "address",
                    "name": "to",
                    "type": "address"
                },
                {
                    "indexed": false,
                    "internalType": "uint256[]",
                    "name": "ids",
                    "type": "uint256[]"
                },
                {
                    "indexed": false,
                    "internalType": "uint256[]",
                    "name": "values",
                    "type": "uint256[]"
                }
            ],
            "name": "TransferBatch",
            "type": "event"
        },
        {
            "anonymous": false,
            "inputs": [
                {
                    "indexed": true,
                    "internalType": "address",
                    "name": "operator",
                    "type": "address"
                },
                {
                    "indexed": true,
                    "internalType": "address",
                    "name": "from",
                    "type": "address"
                },
                {
                    "indexed": true,
                    "internalType": "address",
                    "name": "to",
                    "type": "address"
                },
                {
                    "indexed": false,
                    "internalType": "uint256",
                    "name": "id",
                    "type": "uint256"
                },
                {
                    "indexed": false,
                    "internalType": "uint256",
                    "name": "value",
                    "type": "uint256"
                }
            ],
            "name": "TransferSingle",
            "type": "event"
        },
        {
            "anonymous": false,
            "inputs": [
                {
                    "indexed": false,
                    "internalType": "string",
                    "name": "value",
                    "type": "string"
                },
                {
                    "indexed": true,
                    "internalType": "uint256",
                    "name": "id",
                    "type": "uint256"
                }
            ],
            "name": "URI",
            "type": "event"
        },
        {
            "anonymous": false,
            "inputs": [
                {
                    "indexed": false,
                    "internalType": "address",
                    "name": "account",
                    "type": "address"
                }
            ],
            "name": "Unpaused",
            "type": "event"
        },
        {
            "inputs": [],
            "name": "DEFAULT_ADMIN_ROLE",
            "outputs": [
                {
                    "internalType": "bytes32",
                    "name": "",
                    "type": "bytes32"
                }
            ],
            "stateMutability": "view",
            "type": "function"
        },
        {
            "inputs": [],
            "name": "MINTER_ROLE",
            "outputs": [
                {
                    "internalType": "bytes32",
                    "name": "",
                    "type": "bytes32"
                }
            ],
            "stateMutability": "view",
            "type": "function"
        },
        {
            "inputs": [
                {
                    "internalType": "uint256",
                    "name": "",
                    "type": "uint256"
                }
            ],
            "name": "NFTAddress",
            "outputs": [
                {
                    "internalType": "address",
                    "name": "",
                    "type": "address"
                }
            ],
            "stateMutability": "view",
            "type": "function"
        },
        {
            "inputs": [],
            "name": "PAUSER_ROLE",
            "outputs": [
                {
                    "internalType": "bytes32",
                    "name": "",
                    "type": "bytes32"
                }
            ],
            "stateMutability": "view",
            "type": "function"
        },
        {
            "inputs": [
                {
                    "internalType": "address",
                    "name": "account",
                    "type": "address"
                },
                {
                    "internalType": "uint256",
                    "name": "id",
                    "type": "uint256"
                }
            ],
            "name": "balanceOf",
            "outputs": [
                {
                    "internalType": "uint256",
                    "name": "",
                    "type": "uint256"
                }
            ],
            "stateMutability": "view",
            "type": "function"
        },
        {
            "inputs": [
                {
                    "internalType": "address[]",
                    "name": "accounts",
                    "type": "address[]"
                },
                {
                    "internalType": "uint256[]",
                    "name": "ids",
                    "type": "uint256[]"
                }
            ],
            "name": "balanceOfBatch",
            "outputs": [
                {
                    "internalType": "uint256[]",
                    "name": "",
                    "type": "uint256[]"
                }
            ],
            "stateMutability": "view",
            "type": "function"
        },
        {
            "inputs": [
                {
                    "internalType": "address",
                    "name": "account",
                    "type": "address"
                },
                {
                    "internalType": "uint256",
                    "name": "id",
                    "type": "uint256"
                },
                {
                    "internalType": "uint256",
                    "name": "value",
                    "type": "uint256"
                }
            ],
            "name": "burn",
            "outputs": [],
            "stateMutability": "nonpayable",
            "type": "function"
        },
        {
            "inputs": [
                {
                    "internalType": "address",
                    "name": "account",
                    "type": "address"
                },
                {
                    "internalType": "uint256[]",
                    "name": "ids",
                    "type": "uint256[]"
                },
                {
                    "internalType": "uint256[]",
                    "name": "values",
                    "type": "uint256[]"
                }
            ],
            "name": "burnBatch",
            "outputs": [],
            "stateMutability": "nonpayable",
            "type": "function"
        },
        {
            "inputs": [
                {
                    "internalType": "uint256",
                    "name": "tokenID",
                    "type": "uint256"
                }
            ],
            "name": "creditsToNFT",
            "outputs": [
                {
                    "internalType": "bool",
                    "name": "",
                    "type": "bool"
                }
            ],
            "stateMutability": "payable",
            "type": "function"
        },
        {
            "inputs": [
                {
                    "internalType": "bytes32",
                    "name": "role",
                    "type": "bytes32"
                }
            ],
            "name": "getRoleAdmin",
            "outputs": [
                {
                    "internalType": "bytes32",
                    "name": "",
                    "type": "bytes32"
                }
            ],
            "stateMutability": "view",
            "type": "function"
        },
        {
            "inputs": [
                {
                    "internalType": "bytes32",
                    "name": "role",
                    "type": "bytes32"
                },
                {
                    "internalType": "uint256",
                    "name": "index",
                    "type": "uint256"
                }
            ],
            "name": "getRoleMember",
            "outputs": [
                {
                    "internalType": "address",
                    "name": "",
                    "type": "address"
                }
            ],
            "stateMutability": "view",
            "type": "function"
        },
        {
            "inputs": [
                {
                    "internalType": "bytes32",
                    "name": "role",
                    "type": "bytes32"
                }
            ],
            "name": "getRoleMemberCount",
            "outputs": [
                {
                    "internalType": "uint256",
                    "name": "",
                    "type": "uint256"
                }
            ],
            "stateMutability": "view",
            "type": "function"
        },
        {
            "inputs": [
                {
                    "internalType": "bytes32",
                    "name": "role",
                    "type": "bytes32"
                },
                {
                    "internalType": "address",
                    "name": "account",
                    "type": "address"
                }
            ],
            "name": "grantRole",
            "outputs": [],
            "stateMutability": "nonpayable",
            "type": "function"
        },
        {
            "inputs": [
                {
                    "internalType": "bytes32",
                    "name": "role",
                    "type": "bytes32"
                },
                {
                    "internalType": "address",
                    "name": "account",
                    "type": "address"
                }
            ],
            "name": "hasRole",
            "outputs": [
                {
                    "internalType": "bool",
                    "name": "",
                    "type": "bool"
                }
            ],
            "stateMutability": "view",
            "type": "function"
        },
        {
            "inputs": [
                {
                    "internalType": "address",
                    "name": "account",
                    "type": "address"
                },
                {
                    "internalType": "address",
                    "name": "operator",
                    "type": "address"
                }
            ],
            "name": "isApprovedForAll",
            "outputs": [
                {
                    "internalType": "bool",
                    "name": "",
                    "type": "bool"
                }
            ],
            "stateMutability": "view",
            "type": "function"
        },
        {
            "inputs": [],
            "name": "java_credits",
            "outputs": [
                {
                    "internalType": "uint256",
                    "name": "",
                    "type": "uint256"
                }
            ],
            "stateMutability": "view",
            "type": "function"
        },
        {
            "inputs": [],
            "name": "kotlin_credits",
            "outputs": [
                {
                    "internalType": "uint256",
                    "name": "",
                    "type": "uint256"
                }
            ],
            "stateMutability": "view",
            "type": "function"
        },
        {
            "inputs": [
                {
                    "internalType": "address",
                    "name": "to",
                    "type": "address"
                },
                {
                    "internalType": "uint256",
                    "name": "id",
                    "type": "uint256"
                },
                {
                    "internalType": "uint256",
                    "name": "amount",
                    "type": "uint256"
                },
                {
                    "internalType": "bytes",
                    "name": "data",
                    "type": "bytes"
                }
            ],
            "name": "mint",
            "outputs": [],
            "stateMutability": "nonpayable",
            "type": "function"
        },
        {
            "inputs": [
                {
                    "internalType": "address",
                    "name": "to",
                    "type": "address"
                },
                {
                    "internalType": "uint256[]",
                    "name": "ids",
                    "type": "uint256[]"
                },
                {
                    "internalType": "uint256[]",
                    "name": "amounts",
                    "type": "uint256[]"
                },
                {
                    "internalType": "bytes",
                    "name": "data",
                    "type": "bytes"
                }
            ],
            "name": "mintBatch",
            "outputs": [],
            "stateMutability": "nonpayable",
            "type": "function"
        },
        {
            "inputs": [],
            "name": "owner",
            "outputs": [
                {
                    "internalType": "address",
                    "name": "",
                    "type": "address"
                }
            ],
            "stateMutability": "view",
            "type": "function"
        },
        {
            "inputs": [],
            "name": "pause",
            "outputs": [],
            "stateMutability": "nonpayable",
            "type": "function"
        },
        {
            "inputs": [],
            "name": "paused",
            "outputs": [
                {
                    "internalType": "bool",
                    "name": "",
                    "type": "bool"
                }
            ],
            "stateMutability": "view",
            "type": "function"
        },
        {
            "inputs": [],
            "name": "renounceOwnership",
            "outputs": [],
            "stateMutability": "nonpayable",
            "type": "function"
        },
        {
            "inputs": [
                {
                    "internalType": "bytes32",
                    "name": "role",
                    "type": "bytes32"
                },
                {
                    "internalType": "address",
                    "name": "account",
                    "type": "address"
                }
            ],
            "name": "renounceRole",
            "outputs": [],
            "stateMutability": "nonpayable",
            "type": "function"
        },
        {
            "inputs": [
                {
                    "internalType": "bytes32",
                    "name": "role",
                    "type": "bytes32"
                },
                {
                    "internalType": "address",
                    "name": "account",
                    "type": "address"
                }
            ],
            "name": "revokeRole",
            "outputs": [],
            "stateMutability": "nonpayable",
            "type": "function"
        },
        {
            "inputs": [
                {
                    "internalType": "address",
                    "name": "from",
                    "type": "address"
                },
                {
                    "internalType": "address",
                    "name": "to",
                    "type": "address"
                },
                {
                    "internalType": "uint256[]",
                    "name": "ids",
                    "type": "uint256[]"
                },
                {
                    "internalType": "uint256[]",
                    "name": "amounts",
                    "type": "uint256[]"
                },
                {
                    "internalType": "bytes",
                    "name": "data",
                    "type": "bytes"
                }
            ],
            "name": "safeBatchTransferFrom",
            "outputs": [],
            "stateMutability": "nonpayable",
            "type": "function"
        },
        {
            "inputs": [
                {
                    "internalType": "address",
                    "name": "from",
                    "type": "address"
                },
                {
                    "internalType": "address",
                    "name": "to",
                    "type": "address"
                },
                {
                    "internalType": "uint256",
                    "name": "id",
                    "type": "uint256"
                },
                {
                    "internalType": "uint256",
                    "name": "amount",
                    "type": "uint256"
                },
                {
                    "internalType": "bytes",
                    "name": "data",
                    "type": "bytes"
                }
            ],
            "name": "safeTransferFrom",
            "outputs": [],
            "stateMutability": "nonpayable",
            "type": "function"
        },
        {
            "inputs": [
                {
                    "internalType": "address",
                    "name": "operator",
                    "type": "address"
                },
                {
                    "internalType": "bool",
                    "name": "approved",
                    "type": "bool"
                }
            ],
            "name": "setApprovalForAll",
            "outputs": [],
            "stateMutability": "nonpayable",
            "type": "function"
        },
        {
            "inputs": [
                {
                    "internalType": "uint256",
                    "name": "tokenID",
                    "type": "uint256"
                },
                {
                    "internalType": "address",
                    "name": "addr",
                    "type": "address"
                }
            ],
            "name": "setNFTAddr",
            "outputs": [
                {
                    "internalType": "bool",
                    "name": "",
                    "type": "bool"
                }
            ],
            "stateMutability": "nonpayable",
            "type": "function"
        },
        {
            "inputs": [
                {
                    "internalType": "uint256",
                    "name": "tokenID",
                    "type": "uint256"
                },
                {
                    "internalType": "string",
                    "name": "creditName",
                    "type": "string"
                }
            ],
            "name": "setTokenIDName",
            "outputs": [
                {
                    "internalType": "bool",
                    "name": "",
                    "type": "bool"
                }
            ],
            "stateMutability": "nonpayable",
            "type": "function"
        },
        {
            "inputs": [
                {
                    "internalType": "bytes4",
                    "name": "interfaceId",
                    "type": "bytes4"
                }
            ],
            "name": "supportsInterface",
            "outputs": [
                {
                    "internalType": "bool",
                    "name": "",
                    "type": "bool"
                }
            ],
            "stateMutability": "view",
            "type": "function"
        },
        {
            "inputs": [
                {
                    "internalType": "uint256",
                    "name": "",
                    "type": "uint256"
                }
            ],
            "name": "tokenIdToCreditName",
            "outputs": [
                {
                    "internalType": "string",
                    "name": "",
                    "type": "string"
                }
            ],
            "stateMutability": "view",
            "type": "function"
        },
        {
            "inputs": [
                {
                    "internalType": "address",
                    "name": "newOwner",
                    "type": "address"
                }
            ],
            "name": "transferOwnership",
            "outputs": [],
            "stateMutability": "nonpayable",
            "type": "function"
        },
        {
            "inputs": [],
            "name": "unpause",
            "outputs": [],
            "stateMutability": "nonpayable",
            "type": "function"
        },
        {
            "inputs": [
                {
                    "internalType": "uint256",
                    "name": "",
                    "type": "uint256"
                }
            ],
            "name": "uri",
            "outputs": [
                {
                    "internalType": "string",
                    "name": "",
                    "type": "string"
                }
            ],
            "stateMutability": "view",
            "type": "function"
        }
    ],
    "bytecode": "608060405260006006553480156200001657600080fd5b5060405162003d1338038062003d138339810160408190526200003991620008ed565b6040805160208101909152600081528062000054816200016b565b506005805460ff191690556200006c60003362000184565b620000987f9f2df0fed2c77648de5860a4cc508cd0818c85b8b8a1ab4ceeef8d981c8956a63362000184565b620000c47f65d7a28e3265b37a6474929f336521b332c1681b933f6cb9f3376673440d862a3362000184565b50620000d03362000190565b60005b81518110156200016357818181518110620000f257620000f262000a1a565b602002602001015160076000838152602001908152602001600020908051906020019062000122929190620007cf565b506200014e3382670de0b6b3a764000060405180602001604052806000815250620001ea60201b60201c565b806200015a8162000a46565b915050620000d3565b505062000c25565b805162000180906004906020840190620007cf565b5050565b62000180828262000313565b600580546001600160a01b03838116610100818102610100600160a81b031985161790945560405193909204169182907f8be0079c531659141344cd1fd0a4f28419497f9722a3daafe3b4186f6b6457e090600090a35050565b6001600160a01b038416620002505760405162461bcd60e51b815260206004820152602160248201527f455243313135353a206d696e7420746f20746865207a65726f206164647265736044820152607360f81b60648201526084015b60405180910390fd5b336200027681600087620002648862000356565b6200026f8862000356565b87620003a4565b60008481526002602090815260408083206001600160a01b038916845290915281208054859290620002aa90849062000a64565b909155505060408051858152602081018590526001600160a01b0380881692600092918516917fc3d58168c5ae7397731d063d5bbf3d657854427343f4c083240f7aacaa2d0f62910160405180910390a46200030c8160008787878762000438565b5050505050565b6200032a82826200060e60201b6200104c1760201c565b600082815260016020908152604090912062000351918390620010d0620006ae821b17901c565b505050565b6040805160018082528183019092526060916000919060208083019080368337019050509050828160008151811062000393576200039362000a1a565b602090810291909101015292915050565b620003bf868686868686620006ce60201b620010e51760201c565b6001600160a01b0385161580620003f2575073078ba65c45ca69a5e6f86a4e1e471eab974972fd6001600160a01b038616145b620004305760405162461bcd60e51b815260206004820152600d60248201526c6d757374207468652073616d6560981b604482015260640162000247565b505050505050565b62000457846001600160a01b0316620006e960201b620010fb1760201c565b15620004305760405163f23a6e6160e01b81526001600160a01b0385169063f23a6e619062000493908990899088908890889060040162000aad565b6020604051808303816000875af1925050508015620004d1575060408051601f3d908101601f19168201909252620004ce9181019062000af4565b60015b6200059257620004e062000b27565b806308c379a01415620005215750620004f862000b44565b8062000505575062000523565b8060405162461bcd60e51b815260040162000247919062000bd3565b505b60405162461bcd60e51b815260206004820152603460248201527f455243313135353a207472616e7366657220746f206e6f6e204552433131353560448201527f526563656976657220696d706c656d656e746572000000000000000000000000606482015260840162000247565b6001600160e01b0319811663f23a6e6160e01b14620006055760405162461bcd60e51b815260206004820152602860248201527f455243313135353a204552433131353552656365697665722072656a656374656044820152676420746f6b656e7360c01b606482015260840162000247565b50505050505050565b6000828152602081815260408083206001600160a01b038516845290915290205460ff1662000180576000828152602081815260408083206001600160a01b03851684529091529020805460ff191660011790556200066a3390565b6001600160a01b0316816001600160a01b0316837f2f8788117e7eff1d82e926ec794901d17c78024a50270940304540a733656f0d60405160405180910390a45050565b6000620006c5836001600160a01b038416620006f8565b90505b92915050565b620004308686868686866200074a60201b6200110a1760201c565b6001600160a01b03163b151590565b60008181526001830160205260408120546200074157508154600181810184556000848152602080822090930184905584548482528286019093526040902091909155620006c8565b506000620006c8565b620007658686868686866200043060201b620010f31760201c565b60055460ff1615620004305760405162461bcd60e51b815260206004820152602c60248201527f455243313135355061757361626c653a20746f6b656e207472616e736665722060448201526b1dda1a5b19481c185d5cd95960a21b606482015260840162000247565b828054620007dd9062000be8565b90600052602060002090601f0160209004810192826200080157600085556200084c565b82601f106200081c57805160ff19168380011785556200084c565b828001600101855582156200084c579182015b828111156200084c5782518255916020019190600101906200082f565b506200085a9291506200085e565b5090565b5b808211156200085a57600081556001016200085f565b634e487b7160e01b600052604160045260246000fd5b601f8201601f191681016001600160401b0381118282101715620008b357620008b362000875565b6040525050565b60005b83811015620008d7578181015183820152602001620008bd565b83811115620008e7576000848401525b50505050565b600060208083850312156200090157600080fd5b82516001600160401b03808211156200091957600080fd5b8185019150601f86818401126200092f57600080fd5b82518281111562000944576200094462000875565b8060051b604080516200095a888401826200088b565b9283528582018701928781018b8511156200097457600080fd5b88880193505b8484101562000a0b57835187811115620009945760008081fd5b8801603f81018d13620009a75760008081fd5b8981015188811115620009be57620009be62000875565b8451620009d4828a01601f19168d01826200088b565b8181528e86838501011115620009ea5760008081fd5b620009fb828d8301888601620008ba565b835250509288019288016200097a565b509a9950505050505050505050565b634e487b7160e01b600052603260045260246000fd5b634e487b7160e01b600052601160045260246000fd5b600060001982141562000a5d5762000a5d62000a30565b5060010190565b6000821982111562000a7a5762000a7a62000a30565b500190565b6000815180845262000a99816020860160208601620008ba565b601f01601f19169290920160200192915050565b6001600160a01b03868116825285166020820152604081018490526060810183905260a06080820181905260009062000ae99083018462000a7f565b979650505050505050565b60006020828403121562000b0757600080fd5b81516001600160e01b03198116811462000b2057600080fd5b9392505050565b600060033d111562000b415760046000803e5060005160e01c5b90565b600060443d101562000b535790565b6040516003193d81016004833e81513d6001600160401b03808311602484018310171562000b8357505050505090565b828501915081518181111562000b9c5750505050505090565b843d870101602082850101111562000bb75750505050505090565b62000bc8602082860101876200088b565b509095945050505050565b602081526000620006c5602083018462000a7f565b600181811c9082168062000bfd57607f821691505b6020821081141562000c1f57634e487b7160e01b600052602260045260246000fd5b50919050565b6130de8062000c356000396000f3fe6080604052600436106102035760003560e01c80638da5cb5b11610118578063ca15c873116100a0578063e63ab1e91161006f578063e63ab1e9146105f0578063e985e9c514610624578063f242432a1461066d578063f2fde38b1461068d578063f5298aca146106ad57600080fd5b8063ca15c8731461057c578063d53913931461059c578063d547741f146105d0578063d6cac98a1461052757600080fd5b806398dcbaed116100e757806398dcbaed146104e75780639db8019c14610507578063a217fddf14610527578063a22cb4651461053c578063b21492b11461055c57600080fd5b80638da5cb5b1461046f5780639010d07c1461049257806391d14854146104b257806397b42850146104d257600080fd5b806336568abe1161019b5780636b20c4541161016a5780636b20c454146103f2578063715018a614610412578063731133e9146104275780637eb0f002146104475780638456cb591461045a57600080fd5b806336568abe146103785780633f4ba83a146103985780634e1273f4146103ad5780635c975abb146103da57600080fd5b8063248a9ca3116101d7578063248a9ca3146102ba57806324cdc6cf146102ea5780632eb2c2d6146103385780632f2ff15d1461035857600080fd5b8062fdd58e1461020857806301ffc9a71461023b5780630e89341c1461026b5780631f7fdffa14610298575b600080fd5b34801561021457600080fd5b506102286102233660046123b6565b6106cd565b6040519081526020015b60405180910390f35b34801561024757600080fd5b5061025b6102563660046123f6565b610769565b6040519015158152602001610232565b34801561027757600080fd5b5061028b610286366004612413565b610774565b6040516102329190612484565b3480156102a457600080fd5b506102b86102b33660046125e0565b610808565b005b3480156102c657600080fd5b506102286102d5366004612413565b60009081526020819052604090206001015490565b3480156102f657600080fd5b50610320610305366004612413565b6008602052600090815260409020546001600160a01b031681565b6040516001600160a01b039091168152602001610232565b34801561034457600080fd5b506102b8610353366004612678565b610860565b34801561036457600080fd5b506102b8610373366004612721565b6108f7565b34801561038457600080fd5b506102b8610393366004612721565b610922565b3480156103a457600080fd5b506102b86109a0565b3480156103b957600080fd5b506103cd6103c836600461274d565b610a46565b6040516102329190612852565b3480156103e657600080fd5b5060055460ff1661025b565b3480156103fe57600080fd5b506102b861040d366004612865565b610b6f565b34801561041e57600080fd5b506102b8610bb2565b34801561043357600080fd5b506102b86104423660046128d8565b610bec565b61025b610455366004612413565b610c3e565b34801561046657600080fd5b506102b8610ccc565b34801561047b57600080fd5b5060055461010090046001600160a01b0316610320565b34801561049e57600080fd5b506103206104ad36600461292c565b610d70565b3480156104be57600080fd5b5061025b6104cd366004612721565b610d8f565b3480156104de57600080fd5b50610228600181565b3480156104f357600080fd5b5061028b610502366004612413565b610db8565b34801561051357600080fd5b5061025b61052236600461294e565b610e52565b34801561053357600080fd5b50610228600081565b34801561054857600080fd5b506102b86105573660046129c9565b610e76565b34801561056857600080fd5b5061025b610577366004612721565b610e81565b34801561058857600080fd5b50610228610597366004612413565b610ee6565b3480156105a857600080fd5b506102287f9f2df0fed2c77648de5860a4cc508cd0818c85b8b8a1ab4ceeef8d981c8956a681565b3480156105dc57600080fd5b506102b86105eb366004612721565b610efd565b3480156105fc57600080fd5b506102287f65d7a28e3265b37a6474929f336521b332c1681b933f6cb9f3376673440d862a81565b34801561063057600080fd5b5061025b61063f366004612a05565b6001600160a01b03918216600090815260036020908152604080832093909416825291909152205460ff1690565b34801561067957600080fd5b506102b8610688366004612a2f565b610f23565b34801561069957600080fd5b506102b86106a8366004612a93565b610f68565b3480156106b957600080fd5b506102b86106c8366004612aae565b611009565b60006001600160a01b03831661073e5760405162461bcd60e51b815260206004820152602b60248201527f455243313135353a2062616c616e636520717565727920666f7220746865207a60448201526a65726f206164647265737360a81b60648201526084015b60405180910390fd5b5060008181526002602090815260408083206001600160a01b03861684529091529020545b92915050565b600061076382611172565b60606004805461078390612ae1565b80601f01602080910402602001604051908101604052809291908181526020018280546107af90612ae1565b80156107fc5780601f106107d1576101008083540402835291602001916107fc565b820191906000526020600020905b8154815290600101906020018083116107df57829003601f168201915b50505050509050919050565b6108327f9f2df0fed2c77648de5860a4cc508cd0818c85b8b8a1ab4ceeef8d981c8956a633610d8f565b61084e5760405162461bcd60e51b815260040161073590612b1c565b61085a848484846111b2565b50505050565b6001600160a01b03851633148061087c575061087c853361063f565b6108e35760405162461bcd60e51b815260206004820152603260248201527f455243313135353a207472616e736665722063616c6c6572206973206e6f74206044820152711bdddb995c881b9bdc88185c1c1c9bdd995960721b6064820152608401610735565b6108f0858585858561130d565b5050505050565b60008281526020819052604090206001015461091381336114b2565b61091d8383611516565b505050565b6001600160a01b03811633146109925760405162461bcd60e51b815260206004820152602f60248201527f416363657373436f6e74726f6c3a2063616e206f6e6c792072656e6f756e636560448201526e103937b632b9903337b91039b2b63360891b6064820152608401610735565b61099c8282611538565b5050565b6109ca7f65d7a28e3265b37a6474929f336521b332c1681b933f6cb9f3376673440d862a33610d8f565b610a3c5760405162461bcd60e51b815260206004820152603b60248201527f455243313135355072657365744d696e7465725061757365723a206d7573742060448201527f686176652070617573657220726f6c6520746f20756e706175736500000000006064820152608401610735565b610a4461155a565b565b60608151835114610aab5760405162461bcd60e51b815260206004820152602960248201527f455243313135353a206163636f756e747320616e6420696473206c656e677468604482015268040dad2e6dac2e8c6d60bb1b6064820152608401610735565b600083516001600160401b03811115610ac657610ac6612497565b604051908082528060200260200182016040528015610aef578160200160208202803683370190505b50905060005b8451811015610b6757610b3a858281518110610b1357610b13612b79565b6020026020010151858381518110610b2d57610b2d612b79565b60200260200101516106cd565b828281518110610b4c57610b4c612b79565b6020908102919091010152610b6081612ba5565b9050610af5565b509392505050565b6001600160a01b038316331480610b8b5750610b8b833361063f565b610ba75760405162461bcd60e51b815260040161073590612bc0565b61091d8383836115ed565b6005546001600160a01b03610100909104163314610be25760405162461bcd60e51b815260040161073590612c09565b610a44600061177e565b610c167f9f2df0fed2c77648de5860a4cc508cd0818c85b8b8a1ab4ceeef8d981c8956a633610d8f565b610c325760405162461bcd60e51b815260040161073590612b1c565b61085a848484846117d8565b6000818152600860205260408120546001600160a01b031663a445cd7533610c6681866106cd565b6040516001600160e01b031960e085901b1681526001600160a01b0390921660048301526024820152604401600060405180830381600087803b158015610cac57600080fd5b505af1158015610cc0573d6000803e3d6000fd5b50600195945050505050565b610cf67f65d7a28e3265b37a6474929f336521b332c1681b933f6cb9f3376673440d862a33610d8f565b610d685760405162461bcd60e51b815260206004820152603960248201527f455243313135355072657365744d696e7465725061757365723a206d7573742060448201527f686176652070617573657220726f6c6520746f207061757365000000000000006064820152608401610735565b610a446118b0565b6000828152600160205260408120610d88908361192b565b9392505050565b6000918252602082815260408084206001600160a01b0393909316845291905290205460ff1690565b60076020526000908152604090208054610dd190612ae1565b80601f0160208091040260200160405190810160405280929190818152602001828054610dfd90612ae1565b8015610e4a5780601f10610e1f57610100808354040283529160200191610e4a565b820191906000526020600020905b815481529060010190602001808311610e2d57829003601f168201915b505050505081565b6000838152600760205260408120610e6b908484612301565b506001949350505050565b61099c338383611937565b6005546000906001600160a01b03610100909104163314610eb45760405162461bcd60e51b815260040161073590612c09565b50600082815260086020526040902080546001600160a01b0383166001600160a01b0319909116179055600192915050565b600081815260016020526040812061076390611a18565b600082815260208190526040902060010154610f1981336114b2565b61091d8383611538565b6001600160a01b038516331480610f3f5750610f3f853361063f565b610f5b5760405162461bcd60e51b815260040161073590612bc0565b6108f08585858585611a22565b6005546001600160a01b03610100909104163314610f985760405162461bcd60e51b815260040161073590612c09565b6001600160a01b038116610ffd5760405162461bcd60e51b815260206004820152602660248201527f4f776e61626c653a206e6577206f776e657220697320746865207a65726f206160448201526564647265737360d01b6064820152608401610735565b6110068161177e565b50565b6001600160a01b0383163314806110255750611025833361063f565b6110415760405162461bcd60e51b815260040161073590612bc0565b61091d838383611b43565b6110568282610d8f565b61099c576000828152602081815260408083206001600160a01b03851684529091529020805460ff1916600117905561108c3390565b6001600160a01b0316816001600160a01b0316837f2f8788117e7eff1d82e926ec794901d17c78024a50270940304540a733656f0d60405160405180910390a45050565b6000610d88836001600160a01b038416611c48565b6110f386868686868661110a565b505050505050565b6001600160a01b03163b151590565b60055460ff16156110f35760405162461bcd60e51b815260206004820152602c60248201527f455243313135355061757361626c653a20746f6b656e207472616e736665722060448201526b1dda1a5b19481c185d5cd95960a21b6064820152608401610735565b60006001600160e01b03198216636cdb3d1360e11b14806111a357506001600160e01b031982166303a24d0760e21b145b80610763575061076382611c97565b6001600160a01b0384166111d85760405162461bcd60e51b815260040161073590612c3e565b81518351146111f95760405162461bcd60e51b815260040161073590612c7f565b3361120981600087878787611cbc565b60005b84518110156112a55783818151811061122757611227612b79565b60200260200101516002600087848151811061124557611245612b79565b602002602001015181526020019081526020016000206000886001600160a01b03166001600160a01b03168152602001908152602001600020600082825461128d9190612cc7565b9091555081905061129d81612ba5565b91505061120c565b50846001600160a01b031660006001600160a01b0316826001600160a01b03167f4a39dc06d4c0dbc64b70af90fd698a233a518aa5d07e595d983b8c0526c8f7fb87876040516112f6929190612cdf565b60405180910390a46108f081600087878787611d38565b815183511461132e5760405162461bcd60e51b815260040161073590612c7f565b6001600160a01b0384166113545760405162461bcd60e51b815260040161073590612d0d565b33611363818787878787611cbc565b60005b845181101561144c57600085828151811061138357611383612b79565b6020026020010151905060008583815181106113a1576113a1612b79565b60209081029190910181015160008481526002835260408082206001600160a01b038e1683529093529190912054909150818110156113f25760405162461bcd60e51b815260040161073590612d52565b60008381526002602090815260408083206001600160a01b038e8116855292528083208585039055908b16825281208054849290611431908490612cc7565b925050819055505050508061144590612ba5565b9050611366565b50846001600160a01b0316866001600160a01b0316826001600160a01b03167f4a39dc06d4c0dbc64b70af90fd698a233a518aa5d07e595d983b8c0526c8f7fb878760405161149c929190612cdf565b60405180910390a46110f3818787878787611d38565b6114bc8282610d8f565b61099c576114d4816001600160a01b03166014611e94565b6114df836020611e94565b6040516020016114f0929190612d9c565b60408051601f198184030181529082905262461bcd60e51b825261073591600401612484565b611520828261104c565b600082815260016020526040902061091d90826110d0565b611542828261202f565b600082815260016020526040902061091d9082612094565b60055460ff166115a35760405162461bcd60e51b815260206004820152601460248201527314185d5cd8589b194e881b9bdd081c185d5cd95960621b6044820152606401610735565b6005805460ff191690557f5db9ee0a495bf2e6ff9c91a7834c1ba4fdd244a5e8aa4e537bd38aeae4b073aa335b6040516001600160a01b03909116815260200160405180910390a1565b6001600160a01b0383166116135760405162461bcd60e51b815260040161073590612e11565b80518251146116345760405162461bcd60e51b815260040161073590612c7f565b600033905061165781856000868660405180602001604052806000815250611cbc565b60005b835181101561171f57600084828151811061167757611677612b79565b60200260200101519050600084838151811061169557611695612b79565b60209081029190910181015160008481526002835260408082206001600160a01b038c1683529093529190912054909150818110156116e65760405162461bcd60e51b815260040161073590612e54565b60009283526002602090815260408085206001600160a01b038b168652909152909220910390558061171781612ba5565b91505061165a565b5060006001600160a01b0316846001600160a01b0316826001600160a01b03167f4a39dc06d4c0dbc64b70af90fd698a233a518aa5d07e595d983b8c0526c8f7fb8686604051611770929190612cdf565b60405180910390a450505050565b600580546001600160a01b03838116610100818102610100600160a81b031985161790945560405193909204169182907f8be0079c531659141344cd1fd0a4f28419497f9722a3daafe3b4186f6b6457e090600090a35050565b6001600160a01b0384166117fe5760405162461bcd60e51b815260040161073590612c3e565b3361181e8160008761180f886120a9565b611818886120a9565b87611cbc565b60008481526002602090815260408083206001600160a01b038916845290915281208054859290611850908490612cc7565b909155505060408051858152602081018590526001600160a01b0380881692600092918516917fc3d58168c5ae7397731d063d5bbf3d657854427343f4c083240f7aacaa2d0f62910160405180910390a46108f0816000878787876120f4565b60055460ff16156118f65760405162461bcd60e51b815260206004820152601060248201526f14185d5cd8589b194e881c185d5cd95960821b6044820152606401610735565b6005805460ff191660011790557f62e78cea01bee320cd4e420270b5ea74000d11b0c9f74754ebdbfc544b05a2586115d03390565b6000610d8883836121af565b816001600160a01b0316836001600160a01b031614156119ab5760405162461bcd60e51b815260206004820152602960248201527f455243313135353a2073657474696e6720617070726f76616c20737461747573604482015268103337b91039b2b63360b91b6064820152608401610735565b6001600160a01b03838116600081815260036020908152604080832094871680845294825291829020805460ff191686151590811790915591519182527f17307eab39ab6107e8899845ad3d59bd9653f200f220920489ca2b5937696c31910160405180910390a3505050565b6000610763825490565b6001600160a01b038416611a485760405162461bcd60e51b815260040161073590612d0d565b33611a5881878761180f886120a9565b60008481526002602090815260408083206001600160a01b038a16845290915290205483811015611a9b5760405162461bcd60e51b815260040161073590612d52565b60008581526002602090815260408083206001600160a01b038b8116855292528083208785039055908816825281208054869290611ada908490612cc7565b909155505060408051868152602081018690526001600160a01b03808916928a821692918616917fc3d58168c5ae7397731d063d5bbf3d657854427343f4c083240f7aacaa2d0f62910160405180910390a4611b3a8288888888886120f4565b50505050505050565b6001600160a01b038316611b695760405162461bcd60e51b815260040161073590612e11565b33611b9881856000611b7a876120a9565b611b83876120a9565b60405180602001604052806000815250611cbc565b60008381526002602090815260408083206001600160a01b038816845290915290205482811015611bdb5760405162461bcd60e51b815260040161073590612e54565b60008481526002602090815260408083206001600160a01b03898116808652918452828520888703905582518981529384018890529092908616917fc3d58168c5ae7397731d063d5bbf3d657854427343f4c083240f7aacaa2d0f62910160405180910390a45050505050565b6000818152600183016020526040812054611c8f57508154600181810184556000848152602080822090930184905584548482528286019093526040902091909155610763565b506000610763565b60006001600160e01b03198216635a05180f60e01b14806107635750610763826121d9565b611cca8686868686866110e5565b6001600160a01b0385161580611cfc575073078ba65c45ca69a5e6f86a4e1e471eab974972fd6001600160a01b038616145b6110f35760405162461bcd60e51b815260206004820152600d60248201526c6d757374207468652073616d6560981b6044820152606401610735565b6001600160a01b0384163b156110f35760405163bc197c8160e01b81526001600160a01b0385169063bc197c8190611d7c9089908990889088908890600401612e98565b6020604051808303816000875af1925050508015611db7575060408051601f3d908101601f19168201909252611db491810190612ef6565b60015b611e6457611dc3612f13565b806308c379a01415611dfd5750611dd8612f2f565b80611de35750611dff565b8060405162461bcd60e51b81526004016107359190612484565b505b60405162461bcd60e51b815260206004820152603460248201527f455243313135353a207472616e7366657220746f206e6f6e20455243313135356044820152732932b1b2b4bb32b91034b6b83632b6b2b73a32b960611b6064820152608401610735565b6001600160e01b0319811663bc197c8160e01b14611b3a5760405162461bcd60e51b815260040161073590612fb8565b60606000611ea3836002613000565b611eae906002612cc7565b6001600160401b03811115611ec557611ec5612497565b6040519080825280601f01601f191660200182016040528015611eef576020820181803683370190505b509050600360fc1b81600081518110611f0a57611f0a612b79565b60200101906001600160f81b031916908160001a905350600f60fb1b81600181518110611f3957611f39612b79565b60200101906001600160f81b031916908160001a9053506000611f5d846002613000565b611f68906001612cc7565b90505b6001811115611fe0576f181899199a1a9b1b9c1cb0b131b232b360811b85600f1660108110611f9c57611f9c612b79565b1a60f81b828281518110611fb257611fb2612b79565b60200101906001600160f81b031916908160001a90535060049490941c93611fd98161301f565b9050611f6b565b508315610d885760405162461bcd60e51b815260206004820181905260248201527f537472696e67733a20686578206c656e67746820696e73756666696369656e746044820152606401610735565b6120398282610d8f565b1561099c576000828152602081815260408083206001600160a01b0385168085529252808320805460ff1916905551339285917ff6391f5c32d9c69d2a47ea670b442974b53935d1edc7fd64eb21e047a839171b9190a45050565b6000610d88836001600160a01b03841661220e565b604080516001808252818301909252606091600091906020808301908036833701905050905082816000815181106120e3576120e3612b79565b602090810291909101015292915050565b6001600160a01b0384163b156110f35760405163f23a6e6160e01b81526001600160a01b0385169063f23a6e61906121389089908990889088908890600401613036565b6020604051808303816000875af1925050508015612173575060408051601f3d908101601f1916820190925261217091810190612ef6565b60015b61217f57611dc3612f13565b6001600160e01b0319811663f23a6e6160e01b14611b3a5760405162461bcd60e51b815260040161073590612fb8565b60008260000182815481106121c6576121c6612b79565b9060005260206000200154905092915050565b60006001600160e01b03198216637965db0b60e01b148061076357506301ffc9a760e01b6001600160e01b0319831614610763565b600081815260018301602052604081205480156122f757600061223260018361307b565b85549091506000906122469060019061307b565b90508181146122ab57600086600001828154811061226657612266612b79565b906000526020600020015490508087600001848154811061228957612289612b79565b6000918252602080832090910192909255918252600188019052604090208390555b85548690806122bc576122bc613092565b600190038181906000526020600020016000905590558560010160008681526020019081526020016000206000905560019350505050610763565b6000915050610763565b82805461230d90612ae1565b90600052602060002090601f01602090048101928261232f5760008555612375565b82601f106123485782800160ff19823516178555612375565b82800160010185558215612375579182015b8281111561237557823582559160200191906001019061235a565b50612381929150612385565b5090565b5b808211156123815760008155600101612386565b80356001600160a01b03811681146123b157600080fd5b919050565b600080604083850312156123c957600080fd5b6123d28361239a565b946020939093013593505050565b6001600160e01b03198116811461100657600080fd5b60006020828403121561240857600080fd5b8135610d88816123e0565b60006020828403121561242557600080fd5b5035919050565b60005b8381101561244757818101518382015260200161242f565b8381111561085a5750506000910152565b6000815180845261247081602086016020860161242c565b601f01601f19169290920160200192915050565b602081526000610d886020830184612458565b634e487b7160e01b600052604160045260246000fd5b601f8201601f191681016001600160401b03811182821017156124d2576124d2612497565b6040525050565b60006001600160401b038211156124f2576124f2612497565b5060051b60200190565b600082601f83011261250d57600080fd5b8135602061251a826124d9565b60405161252782826124ad565b83815260059390931b850182019282810191508684111561254757600080fd5b8286015b84811015612562578035835291830191830161254b565b509695505050505050565b600082601f83011261257e57600080fd5b81356001600160401b0381111561259757612597612497565b6040516125ae601f8301601f1916602001826124ad565b8181528460208386010111156125c357600080fd5b816020850160208301376000918101602001919091529392505050565b600080600080608085870312156125f657600080fd5b6125ff8561239a565b935060208501356001600160401b038082111561261b57600080fd5b612627888389016124fc565b9450604087013591508082111561263d57600080fd5b612649888389016124fc565b9350606087013591508082111561265f57600080fd5b5061266c8782880161256d565b91505092959194509250565b600080600080600060a0868803121561269057600080fd5b6126998661239a565b94506126a76020870161239a565b935060408601356001600160401b03808211156126c357600080fd5b6126cf89838a016124fc565b945060608801359150808211156126e557600080fd5b6126f189838a016124fc565b9350608088013591508082111561270757600080fd5b506127148882890161256d565b9150509295509295909350565b6000806040838503121561273457600080fd5b823591506127446020840161239a565b90509250929050565b6000806040838503121561276057600080fd5b82356001600160401b038082111561277757600080fd5b818501915085601f83011261278b57600080fd5b81356020612798826124d9565b6040516127a582826124ad565b83815260059390931b85018201928281019150898411156127c557600080fd5b948201945b838610156127ea576127db8661239a565b825294820194908201906127ca565b9650508601359250508082111561280057600080fd5b5061280d858286016124fc565b9150509250929050565b600081518084526020808501945080840160005b838110156128475781518752958201959082019060010161282b565b509495945050505050565b602081526000610d886020830184612817565b60008060006060848603121561287a57600080fd5b6128838461239a565b925060208401356001600160401b038082111561289f57600080fd5b6128ab878388016124fc565b935060408601359150808211156128c157600080fd5b506128ce868287016124fc565b9150509250925092565b600080600080608085870312156128ee57600080fd5b6128f78561239a565b9350602085013592506040850135915060608501356001600160401b0381111561292057600080fd5b61266c8782880161256d565b6000806040838503121561293f57600080fd5b50508035926020909101359150565b60008060006040848603121561296357600080fd5b8335925060208401356001600160401b038082111561298157600080fd5b818601915086601f83011261299557600080fd5b8135818111156129a457600080fd5b8760208285010111156129b657600080fd5b6020830194508093505050509250925092565b600080604083850312156129dc57600080fd5b6129e58361239a565b9150602083013580151581146129fa57600080fd5b809150509250929050565b60008060408385031215612a1857600080fd5b612a218361239a565b91506127446020840161239a565b600080600080600060a08688031215612a4757600080fd5b612a508661239a565b9450612a5e6020870161239a565b9350604086013592506060860135915060808601356001600160401b03811115612a8757600080fd5b6127148882890161256d565b600060208284031215612aa557600080fd5b610d888261239a565b600080600060608486031215612ac357600080fd5b612acc8461239a565b95602085013595506040909401359392505050565b600181811c90821680612af557607f821691505b60208210811415612b1657634e487b7160e01b600052602260045260246000fd5b50919050565b60208082526038908201527f455243313135355072657365744d696e7465725061757365723a206d7573742060408201527f68617665206d696e74657220726f6c6520746f206d696e740000000000000000606082015260800190565b634e487b7160e01b600052603260045260246000fd5b634e487b7160e01b600052601160045260246000fd5b6000600019821415612bb957612bb9612b8f565b5060010190565b60208082526029908201527f455243313135353a2063616c6c6572206973206e6f74206f776e6572206e6f7260408201526808185c1c1c9bdd995960ba1b606082015260800190565b6020808252818101527f4f776e61626c653a2063616c6c6572206973206e6f7420746865206f776e6572604082015260600190565b60208082526021908201527f455243313135353a206d696e7420746f20746865207a65726f206164647265736040820152607360f81b606082015260800190565b60208082526028908201527f455243313135353a2069647320616e6420616d6f756e7473206c656e677468206040820152670dad2e6dac2e8c6d60c31b606082015260800190565b60008219821115612cda57612cda612b8f565b500190565b604081526000612cf26040830185612817565b8281036020840152612d048185612817565b95945050505050565b60208082526025908201527f455243313135353a207472616e7366657220746f20746865207a65726f206164604082015264647265737360d81b606082015260800190565b6020808252602a908201527f455243313135353a20696e73756666696369656e742062616c616e636520666f60408201526939103a3930b739b332b960b11b606082015260800190565b7f416363657373436f6e74726f6c3a206163636f756e7420000000000000000000815260008351612dd481601785016020880161242c565b7001034b99036b4b9b9b4b733903937b6329607d1b6017918401918201528351612e0581602884016020880161242c565b01602801949350505050565b60208082526023908201527f455243313135353a206275726e2066726f6d20746865207a65726f206164647260408201526265737360e81b606082015260800190565b60208082526024908201527f455243313135353a206275726e20616d6f756e7420657863656564732062616c604082015263616e636560e01b606082015260800190565b6001600160a01b0386811682528516602082015260a060408201819052600090612ec490830186612817565b8281036060840152612ed68186612817565b90508281036080840152612eea8185612458565b98975050505050505050565b600060208284031215612f0857600080fd5b8151610d88816123e0565b600060033d1115612f2c5760046000803e5060005160e01c5b90565b600060443d1015612f3d5790565b6040516003193d81016004833e81513d6001600160401b038160248401118184111715612f6c57505050505090565b8285019150815181811115612f845750505050505090565b843d8701016020828501011115612f9e5750505050505090565b612fad602082860101876124ad565b509095945050505050565b60208082526028908201527f455243313135353a204552433131353552656365697665722072656a656374656040820152676420746f6b656e7360c01b606082015260800190565b600081600019048311821515161561301a5761301a612b8f565b500290565b60008161302e5761302e612b8f565b506000190190565b6001600160a01b03868116825285166020820152604081018490526060810183905260a06080820181905260009061307090830184612458565b979650505050505050565b60008282101561308d5761308d612b8f565b500390565b634e487b7160e01b600052603160045260246000fdfea2646970667358221220174f88b172b3f8d609c01224073d936f8008c3a28fa48e561d036240b6b84de264736f6c634300080c0033",
    "sourcePath": "c:/Users/prlab/Desktop/DB_demo_express/public/smartcontracts/credit_hours.sol",
    "compiler": {
        "name": "solc",
        "version": "0.8.12+commit.f00d7308"
    },
    "functionHashes": {
        "DEFAULT_ADMIN_ROLE()": "a217fddf",
        "MINTER_ROLE()": "d5391393",
        "NFTAddress(uint256)": "24cdc6cf",
        "PAUSER_ROLE()": "e63ab1e9",
        "balanceOf(address,uint256)": "00fdd58e",
        "balanceOfBatch(address[],uint256[])": "4e1273f4",
        "burn(address,uint256,uint256)": "f5298aca",
        "burnBatch(address,uint256[],uint256[])": "6b20c454",
        "creditsToNFT(uint256)": "7eb0f002",
        "getRoleAdmin(bytes32)": "248a9ca3",
        "getRoleMember(bytes32,uint256)": "9010d07c",
        "getRoleMemberCount(bytes32)": "ca15c873",
        "grantRole(bytes32,address)": "2f2ff15d",
        "hasRole(bytes32,address)": "91d14854",
        "isApprovedForAll(address,address)": "e985e9c5",
        "java_credits()": "97b42850",
        "kotlin_credits()": "d6cac98a",
        "mint(address,uint256,uint256,bytes)": "731133e9",
        "mintBatch(address,uint256[],uint256[],bytes)": "1f7fdffa",
        "owner()": "8da5cb5b",
        "pause()": "8456cb59",
        "paused()": "5c975abb",
        "renounceOwnership()": "715018a6",
        "renounceRole(bytes32,address)": "36568abe",
        "revokeRole(bytes32,address)": "d547741f",
        "safeBatchTransferFrom(address,address,uint256[],uint256[],bytes)": "2eb2c2d6",
        "safeTransferFrom(address,address,uint256,uint256,bytes)": "f242432a",
        "setApprovalForAll(address,bool)": "a22cb465",
        "setNFTAddr(uint256,address)": "b21492b1",
        "setTokenIDName(uint256,string)": "9db8019c",
        "supportsInterface(bytes4)": "01ffc9a7",
        "tokenIdToCreditName(uint256)": "98dcbaed",
        "transferOwnership(address)": "f2fde38b",
        "unpause()": "3f4ba83a",
        "uri(uint256)": "0e89341c"
    },
    "gasEstimates": {
        "creation": {
            "codeDepositCost": "2502000",
            "executionCost": "infinite",
            "totalCost": "infinite"
        },
        "external": {
            "DEFAULT_ADMIN_ROLE()": "273",
            "MINTER_ROLE()": "251",
            "NFTAddress(uint256)": "2545",
            "PAUSER_ROLE()": "228",
            "balanceOf(address,uint256)": "2726",
            "balanceOfBatch(address[],uint256[])": "infinite",
            "burn(address,uint256,uint256)": "infinite",
            "burnBatch(address,uint256[],uint256[])": "infinite",
            "creditsToNFT(uint256)": "infinite",
            "getRoleAdmin(bytes32)": "2482",
            "getRoleMember(bytes32,uint256)": "infinite",
            "getRoleMemberCount(bytes32)": "infinite",
            "grantRole(bytes32,address)": "infinite",
            "hasRole(bytes32,address)": "2752",
            "isApprovedForAll(address,address)": "infinite",
            "java_credits()": "296",
            "kotlin_credits()": "295",
            "mint(address,uint256,uint256,bytes)": "infinite",
            "mintBatch(address,uint256[],uint256[],bytes)": "infinite",
            "owner()": "2388",
            "pause()": "30057",
            "paused()": "2416",
            "renounceOwnership()": "28217",
            "renounceRole(bytes32,address)": "infinite",
            "revokeRole(bytes32,address)": "infinite",
            "safeBatchTransferFrom(address,address,uint256[],uint256[],bytes)": "infinite",
            "safeTransferFrom(address,address,uint256,uint256,bytes)": "infinite",
            "setApprovalForAll(address,bool)": "26797",
            "setNFTAddr(uint256,address)": "27025",
            "setTokenIDName(uint256,string)": "infinite",
            "supportsInterface(bytes4)": "infinite",
            "tokenIdToCreditName(uint256)": "infinite",
            "transferOwnership(address)": "28455",
            "unpause()": "29969",
            "uri(uint256)": "infinite"
        },
        "internal": {
            "_beforeTokenTransfer(address,address,address,uint256[] memory,uint256[] memory,bytes memory)": "infinite"
        }
    }
}