{
    "contractName": "CertificateNFT",
    "abi": [
        {
            "inputs": [
                {
                    "internalType": "string",
                    "name": "initBaseURI",
                    "type": "string"
                },
                {
                    "internalType": "uint256",
                    "name": "initGoal",
                    "type": "uint256"
                },
                {
                    "internalType": "address",
                    "name": "erc1155Addr",
                    "type": "address"
                }
            ],
            "stateMutability": "nonpayable",
            "type": "constructor"
        },
        {
            "anonymous": false,
            "inputs": [
                {
                    "indexed": true,
                    "internalType": "address",
                    "name": "owner",
                    "type": "address"
                },
                {
                    "indexed": true,
                    "internalType": "address",
                    "name": "approved",
                    "type": "address"
                },
                {
                    "indexed": true,
                    "internalType": "uint256",
                    "name": "tokenId",
                    "type": "uint256"
                }
            ],
            "name": "Approval",
            "type": "event"
        },
        {
            "anonymous": false,
            "inputs": [
                {
                    "indexed": true,
                    "internalType": "address",
                    "name": "owner",
                    "type": "address"
                },
                {
                    "indexed": true,
                    "internalType": "address",
                    "name": "operator",
                    "type": "address"
                },
                {
                    "indexed": false,
                    "internalType": "bool",
                    "name": "approved",
                    "type": "bool"
                }
            ],
            "name": "ApprovalForAll",
            "type": "event"
        },
        {
            "anonymous": false,
            "inputs": [
                {
                    "indexed": true,
                    "internalType": "address",
                    "name": "previousOwner",
                    "type": "address"
                },
                {
                    "indexed": true,
                    "internalType": "address",
                    "name": "newOwner",
                    "type": "address"
                }
            ],
            "name": "OwnershipTransferred",
            "type": "event"
        },
        {
            "anonymous": false,
            "inputs": [
                {
                    "indexed": true,
                    "internalType": "address",
                    "name": "from",
                    "type": "address"
                },
                {
                    "indexed": true,
                    "internalType": "address",
                    "name": "to",
                    "type": "address"
                },
                {
                    "indexed": true,
                    "internalType": "uint256",
                    "name": "tokenId",
                    "type": "uint256"
                }
            ],
            "name": "Transfer",
            "type": "event"
        },
        {
            "inputs": [
                {
                    "internalType": "address",
                    "name": "to",
                    "type": "address"
                },
                {
                    "internalType": "uint256",
                    "name": "tokenId",
                    "type": "uint256"
                }
            ],
            "name": "approve",
            "outputs": [],
            "stateMutability": "nonpayable",
            "type": "function"
        },
        {
            "inputs": [
                {
                    "internalType": "address",
                    "name": "owner",
                    "type": "address"
                }
            ],
            "name": "balanceOf",
            "outputs": [
                {
                    "internalType": "uint256",
                    "name": "",
                    "type": "uint256"
                }
            ],
            "stateMutability": "view",
            "type": "function"
        },
        {
            "inputs": [],
            "name": "baseExtension",
            "outputs": [
                {
                    "internalType": "string",
                    "name": "",
                    "type": "string"
                }
            ],
            "stateMutability": "view",
            "type": "function"
        },
        {
            "inputs": [],
            "name": "baseURI",
            "outputs": [
                {
                    "internalType": "string",
                    "name": "",
                    "type": "string"
                }
            ],
            "stateMutability": "view",
            "type": "function"
        },
        {
            "inputs": [
                {
                    "internalType": "uint256",
                    "name": "tokenId",
                    "type": "uint256"
                }
            ],
            "name": "getApproved",
            "outputs": [
                {
                    "internalType": "address",
                    "name": "",
                    "type": "address"
                }
            ],
            "stateMutability": "view",
            "type": "function"
        },
        {
            "inputs": [],
            "name": "goal",
            "outputs": [
                {
                    "internalType": "uint256",
                    "name": "",
                    "type": "uint256"
                }
            ],
            "stateMutability": "view",
            "type": "function"
        },
        {
            "inputs": [
                {
                    "internalType": "address",
                    "name": "owner",
                    "type": "address"
                },
                {
                    "internalType": "address",
                    "name": "operator",
                    "type": "address"
                }
            ],
            "name": "isApprovedForAll",
            "outputs": [
                {
                    "internalType": "bool",
                    "name": "",
                    "type": "bool"
                }
            ],
            "stateMutability": "view",
            "type": "function"
        },
        {
            "inputs": [],
            "name": "maxBalance",
            "outputs": [
                {
                    "internalType": "uint256",
                    "name": "",
                    "type": "uint256"
                }
            ],
            "stateMutability": "view",
            "type": "function"
        },
        {
            "inputs": [
                {
                    "internalType": "address",
                    "name": "to",
                    "type": "address"
                },
                {
                    "internalType": "uint256",
                    "name": "amount",
                    "type": "uint256"
                }
            ],
            "name": "mintNFTMeta",
            "outputs": [],
            "stateMutability": "payable",
            "type": "function"
        },
        {
            "inputs": [],
            "name": "name",
            "outputs": [
                {
                    "internalType": "string",
                    "name": "",
                    "type": "string"
                }
            ],
            "stateMutability": "view",
            "type": "function"
        },
        {
            "inputs": [],
            "name": "owner",
            "outputs": [
                {
                    "internalType": "address",
                    "name": "",
                    "type": "address"
                }
            ],
            "stateMutability": "view",
            "type": "function"
        },
        {
            "inputs": [
                {
                    "internalType": "uint256",
                    "name": "tokenId",
                    "type": "uint256"
                }
            ],
            "name": "ownerOf",
            "outputs": [
                {
                    "internalType": "address",
                    "name": "",
                    "type": "address"
                }
            ],
            "stateMutability": "view",
            "type": "function"
        },
        {
            "inputs": [],
            "name": "renounceOwnership",
            "outputs": [],
            "stateMutability": "nonpayable",
            "type": "function"
        },
        {
            "inputs": [
                {
                    "internalType": "address",
                    "name": "from",
                    "type": "address"
                },
                {
                    "internalType": "address",
                    "name": "to",
                    "type": "address"
                },
                {
                    "internalType": "uint256",
                    "name": "tokenId",
                    "type": "uint256"
                }
            ],
            "name": "safeTransferFrom",
            "outputs": [],
            "stateMutability": "nonpayable",
            "type": "function"
        },
        {
            "inputs": [
                {
                    "internalType": "address",
                    "name": "from",
                    "type": "address"
                },
                {
                    "internalType": "address",
                    "name": "to",
                    "type": "address"
                },
                {
                    "internalType": "uint256",
                    "name": "tokenId",
                    "type": "uint256"
                },
                {
                    "internalType": "bytes",
                    "name": "_data",
                    "type": "bytes"
                }
            ],
            "name": "safeTransferFrom",
            "outputs": [],
            "stateMutability": "nonpayable",
            "type": "function"
        },
        {
            "inputs": [
                {
                    "internalType": "address",
                    "name": "operator",
                    "type": "address"
                },
                {
                    "internalType": "bool",
                    "name": "approved",
                    "type": "bool"
                }
            ],
            "name": "setApprovalForAll",
            "outputs": [],
            "stateMutability": "nonpayable",
            "type": "function"
        },
        {
            "inputs": [
                {
                    "internalType": "string",
                    "name": "_newBaseExtension",
                    "type": "string"
                }
            ],
            "name": "setBaseExtension",
            "outputs": [],
            "stateMutability": "nonpayable",
            "type": "function"
        },
        {
            "inputs": [
                {
                    "internalType": "string",
                    "name": "_newBaseURI",
                    "type": "string"
                }
            ],
            "name": "setBaseURI",
            "outputs": [],
            "stateMutability": "nonpayable",
            "type": "function"
        },
        {
            "inputs": [
                {
                    "internalType": "uint256",
                    "name": "_goal",
                    "type": "uint256"
                }
            ],
            "name": "setGoal",
            "outputs": [],
            "stateMutability": "nonpayable",
            "type": "function"
        },
        {
            "inputs": [
                {
                    "internalType": "bytes4",
                    "name": "interfaceId",
                    "type": "bytes4"
                }
            ],
            "name": "supportsInterface",
            "outputs": [
                {
                    "internalType": "bool",
                    "name": "",
                    "type": "bool"
                }
            ],
            "stateMutability": "view",
            "type": "function"
        },
        {
            "inputs": [],
            "name": "symbol",
            "outputs": [
                {
                    "internalType": "string",
                    "name": "",
                    "type": "string"
                }
            ],
            "stateMutability": "view",
            "type": "function"
        },
        {
            "inputs": [
                {
                    "internalType": "uint256",
                    "name": "index",
                    "type": "uint256"
                }
            ],
            "name": "tokenByIndex",
            "outputs": [
                {
                    "internalType": "uint256",
                    "name": "",
                    "type": "uint256"
                }
            ],
            "stateMutability": "view",
            "type": "function"
        },
        {
            "inputs": [
                {
                    "internalType": "address",
                    "name": "owner",
                    "type": "address"
                },
                {
                    "internalType": "uint256",
                    "name": "index",
                    "type": "uint256"
                }
            ],
            "name": "tokenOfOwnerByIndex",
            "outputs": [
                {
                    "internalType": "uint256",
                    "name": "",
                    "type": "uint256"
                }
            ],
            "stateMutability": "view",
            "type": "function"
        },
        {
            "inputs": [
                {
                    "internalType": "uint256",
                    "name": "tokenId",
                    "type": "uint256"
                }
            ],
            "name": "tokenURI",
            "outputs": [
                {
                    "internalType": "string",
                    "name": "",
                    "type": "string"
                }
            ],
            "stateMutability": "view",
            "type": "function"
        },
        {
            "inputs": [],
            "name": "totalSupply",
            "outputs": [
                {
                    "internalType": "uint256",
                    "name": "",
                    "type": "uint256"
                }
            ],
            "stateMutability": "view",
            "type": "function"
        },
        {
            "inputs": [
                {
                    "internalType": "address",
                    "name": "from",
                    "type": "address"
                },
                {
                    "internalType": "address",
                    "name": "to",
                    "type": "address"
                },
                {
                    "internalType": "uint256",
                    "name": "tokenId",
                    "type": "uint256"
                }
            ],
            "name": "transferFrom",
            "outputs": [],
            "stateMutability": "nonpayable",
            "type": "function"
        },
        {
            "inputs": [
                {
                    "internalType": "address",
                    "name": "newOwner",
                    "type": "address"
                }
            ],
            "name": "transferOwnership",
            "outputs": [],
            "stateMutability": "nonpayable",
            "type": "function"
        }
    ],
    "bytecode": "60c06040526005608081905264173539b7b760d91b60a09081526200002891600c9190620002d9565b506000600d556001600e553480156200004057600080fd5b5060405162002519380380620025198339810160408190526200006391620003b2565b60408051808201825260098152686a617661204d65746160b81b6020808301918252835180850190945260028452614a4d60f01b908401528151919291620000ae91600091620002d9565b508051620000c4906001906020840190620002d9565b505050620000e1620000db6200010b60201b60201c565b6200010f565b620000ec8362000161565b620000f782620001c9565b620001028162000219565b505050620004ea565b3390565b600a80546001600160a01b038381166001600160a01b0319831681179093556040519116919082907f8be0079c531659141344cd1fd0a4f28419497f9722a3daafe3b4186f6b6457e090600090a35050565b600a546001600160a01b03163314620001b05760405162461bcd60e51b81526020600482018190526024820152600080516020620024f983398151915260448201526064015b60405180910390fd5b8051620001c590600b906020840190620002d9565b5050565b600a546001600160a01b03163314620002145760405162461bcd60e51b81526020600482018190526024820152600080516020620024f98339815191526044820152606401620001a7565b600d55565b600a546001600160a01b03163314620002645760405162461bcd60e51b81526020600482018190526024820152600080516020620024f98339815191526044820152606401620001a7565b6001600160a01b038116620002cb5760405162461bcd60e51b815260206004820152602660248201527f4f776e61626c653a206e6577206f776e657220697320746865207a65726f206160448201526564647265737360d01b6064820152608401620001a7565b620002d6816200010f565b50565b828054620002e790620004ad565b90600052602060002090601f0160209004810192826200030b576000855562000356565b82601f106200032657805160ff191683800117855562000356565b8280016001018555821562000356579182015b828111156200035657825182559160200191906001019062000339565b506200036492915062000368565b5090565b5b8082111562000364576000815560010162000369565b634e487b7160e01b600052604160045260246000fd5b80516001600160a01b0381168114620003ad57600080fd5b919050565b600080600060608486031215620003c857600080fd5b83516001600160401b0380821115620003e057600080fd5b818601915086601f830112620003f557600080fd5b8151818111156200040a576200040a6200037f565b604051601f8201601f19908116603f011681019083821181831017156200043557620004356200037f565b816040528281526020935089848487010111156200045257600080fd5b600091505b8282101562000476578482018401518183018501529083019062000457565b82821115620004885760008484830101525b8097505050508086015193505050620004a46040850162000395565b90509250925092565b600181811c90821680620004c257607f821691505b60208210811415620004e457634e487b7160e01b600052602260045260246000fd5b50919050565b611fff80620004fa6000396000f3fe60806040526004361061019c5760003560e01c80636c0360eb116100ec578063a445cd751161008a578063c87b56dd11610064578063c87b56dd14610462578063da3ef23f14610482578063e985e9c5146104a2578063f2fde38b146104eb57600080fd5b8063a445cd751461041a578063b88d4fde1461042d578063c66828621461044d57600080fd5b806373ad468a116100c657806373ad468a146103b15780638da5cb5b146103c757806395d89b41146103e5578063a22cb465146103fa57600080fd5b80636c0360eb1461036757806370a082311461037c578063715018a61461039c57600080fd5b80632f745c59116101595780634b29c448116101335780634b29c448146102e75780634f6ccce71461030757806355f804b3146103275780636352211e1461034757600080fd5b80632f745c591461029157806340193883146102b157806342842e0e146102c757600080fd5b806301ffc9a7146101a157806306fdde03146101d6578063081812fc146101f8578063095ea7b31461023057806318160ddd1461025257806323b872dd14610271575b600080fd5b3480156101ad57600080fd5b506101c16101bc36600461194f565b61050b565b60405190151581526020015b60405180910390f35b3480156101e257600080fd5b506101eb610536565b6040516101cd91906119cb565b34801561020457600080fd5b506102186102133660046119de565b6105c8565b6040516001600160a01b0390911681526020016101cd565b34801561023c57600080fd5b5061025061024b366004611a13565b610662565b005b34801561025e57600080fd5b506008545b6040519081526020016101cd565b34801561027d57600080fd5b5061025061028c366004611a3d565b610778565b34801561029d57600080fd5b506102636102ac366004611a13565b6107a9565b3480156102bd57600080fd5b50610263600d5481565b3480156102d357600080fd5b506102506102e2366004611a3d565b61083f565b3480156102f357600080fd5b506102506103023660046119de565b61085a565b34801561031357600080fd5b506102636103223660046119de565b610889565b34801561033357600080fd5b50610250610342366004611b05565b61091c565b34801561035357600080fd5b506102186103623660046119de565b61095d565b34801561037357600080fd5b506101eb6109d4565b34801561038857600080fd5b50610263610397366004611b4e565b610a62565b3480156103a857600080fd5b50610250610ae9565b3480156103bd57600080fd5b50610263600e5481565b3480156103d357600080fd5b50600a546001600160a01b0316610218565b3480156103f157600080fd5b506101eb610b1f565b34801561040657600080fd5b50610250610415366004611b69565b610b2e565b610250610428366004611a13565b610b39565b34801561043957600080fd5b50610250610448366004611ba5565b610c25565b34801561045957600080fd5b506101eb610c5d565b34801561046e57600080fd5b506101eb61047d3660046119de565b610c6a565b34801561048e57600080fd5b5061025061049d366004611b05565b610d2a565b3480156104ae57600080fd5b506101c16104bd366004611c21565b6001600160a01b03918216600090815260056020908152604080832093909416825291909152205460ff1690565b3480156104f757600080fd5b50610250610506366004611b4e565b610d67565b60006001600160e01b0319821663780e9d6360e01b1480610530575061053082610e02565b92915050565b60606000805461054590611c54565b80601f016020809104026020016040519081016040528092919081815260200182805461057190611c54565b80156105be5780601f10610593576101008083540402835291602001916105be565b820191906000526020600020905b8154815290600101906020018083116105a157829003601f168201915b5050505050905090565b6000818152600260205260408120546001600160a01b03166106465760405162461bcd60e51b815260206004820152602c60248201527f4552433732313a20617070726f76656420717565727920666f72206e6f6e657860448201526b34b9ba32b73a103a37b5b2b760a11b60648201526084015b60405180910390fd5b506000908152600460205260409020546001600160a01b031690565b600061066d8261095d565b9050806001600160a01b0316836001600160a01b031614156106db5760405162461bcd60e51b815260206004820152602160248201527f4552433732313a20617070726f76616c20746f2063757272656e74206f776e656044820152603960f91b606482015260840161063d565b336001600160a01b03821614806106f757506106f781336104bd565b6107695760405162461bcd60e51b815260206004820152603860248201527f4552433732313a20617070726f76652063616c6c6572206973206e6f74206f7760448201527f6e6572206e6f7220617070726f76656420666f7220616c6c0000000000000000606482015260840161063d565b6107738383610e52565b505050565b6107823382610ec0565b61079e5760405162461bcd60e51b815260040161063d90611c8f565b610773838383610fb7565b60006107b483610a62565b82106108165760405162461bcd60e51b815260206004820152602b60248201527f455243373231456e756d657261626c653a206f776e657220696e646578206f7560448201526a74206f6620626f756e647360a81b606482015260840161063d565b506001600160a01b03919091166000908152600660209081526040808320938352929052205490565b61077383838360405180602001604052806000815250610c25565b600a546001600160a01b031633146108845760405162461bcd60e51b815260040161063d90611ce0565b600d55565b600061089460085490565b82106108f75760405162461bcd60e51b815260206004820152602c60248201527f455243373231456e756d657261626c653a20676c6f62616c20696e646578206f60448201526b7574206f6620626f756e647360a01b606482015260840161063d565b6008828154811061090a5761090a611d15565b90600052602060002001549050919050565b600a546001600160a01b031633146109465760405162461bcd60e51b815260040161063d90611ce0565b805161095990600b9060208401906118a0565b5050565b6000818152600260205260408120546001600160a01b0316806105305760405162461bcd60e51b815260206004820152602960248201527f4552433732313a206f776e657220717565727920666f72206e6f6e657869737460448201526832b73a103a37b5b2b760b91b606482015260840161063d565b600b80546109e190611c54565b80601f0160208091040260200160405190810160405280929190818152602001828054610a0d90611c54565b8015610a5a5780601f10610a2f57610100808354040283529160200191610a5a565b820191906000526020600020905b815481529060010190602001808311610a3d57829003601f168201915b505050505081565b60006001600160a01b038216610acd5760405162461bcd60e51b815260206004820152602a60248201527f4552433732313a2062616c616e636520717565727920666f7220746865207a65604482015269726f206164647265737360b01b606482015260840161063d565b506001600160a01b031660009081526003602052604090205490565b600a546001600160a01b03163314610b135760405162461bcd60e51b815260040161063d90611ce0565b610b1d600061115e565b565b60606001805461054590611c54565b6109593383836111b0565b600a546001600160a01b03163314610b635760405162461bcd60e51b815260040161063d90611ce0565b600d548111610b73600d5461127f565b604051602001610b839190611d2b565b60405160208183030381529060405290610bb05760405162461bcd60e51b815260040161063d91906119cb565b50600e54610bbd83610a62565b610bc8906001611dbb565b1115610c0e5760405162461bcd60e51b81526020600482015260156024820152742cb7ba9030b63932b0b23c903430bb329037b7329760591b604482015260640161063d565b6000610c1960085490565b9050610773838261137d565b610c2f3383610ec0565b610c4b5760405162461bcd60e51b815260040161063d90611c8f565b610c5784848484611397565b50505050565b600c80546109e190611c54565b6000818152600260205260409020546060906001600160a01b0316610ce95760405162461bcd60e51b815260206004820152602f60248201527f4552433732314d657461646174613a2055524920717565727920666f72206e6f60448201526e3732bc34b9ba32b73a103a37b5b2b760891b606482015260840161063d565b6000610cf36113ca565b905080610cff8461127f565b600c604051602001610d1393929190611dd3565b604051602081830303815290604052915050919050565b600a546001600160a01b03163314610d545760405162461bcd60e51b815260040161063d90611ce0565b805161095990600c9060208401906118a0565b600a546001600160a01b03163314610d915760405162461bcd60e51b815260040161063d90611ce0565b6001600160a01b038116610df65760405162461bcd60e51b815260206004820152602660248201527f4f776e61626c653a206e6577206f776e657220697320746865207a65726f206160448201526564647265737360d01b606482015260840161063d565b610dff8161115e565b50565b60006001600160e01b031982166380ac58cd60e01b1480610e3357506001600160e01b03198216635b5e139f60e01b145b8061053057506301ffc9a760e01b6001600160e01b0319831614610530565b600081815260046020526040902080546001600160a01b0319166001600160a01b0384169081179091558190610e878261095d565b6001600160a01b03167f8c5be1e5ebec7d5bd14f71427d1e84f3dd0314c0f7b2291e5b200ac8c7c3b92560405160405180910390a45050565b6000818152600260205260408120546001600160a01b0316610f395760405162461bcd60e51b815260206004820152602c60248201527f4552433732313a206f70657261746f7220717565727920666f72206e6f6e657860448201526b34b9ba32b73a103a37b5b2b760a11b606482015260840161063d565b6000610f448361095d565b9050806001600160a01b0316846001600160a01b03161480610f7f5750836001600160a01b0316610f74846105c8565b6001600160a01b0316145b80610faf57506001600160a01b0380821660009081526005602090815260408083209388168352929052205460ff165b949350505050565b826001600160a01b0316610fca8261095d565b6001600160a01b03161461102e5760405162461bcd60e51b815260206004820152602560248201527f4552433732313a207472616e736665722066726f6d20696e636f72726563742060448201526437bbb732b960d91b606482015260840161063d565b6001600160a01b0382166110905760405162461bcd60e51b8152602060048201526024808201527f4552433732313a207472616e7366657220746f20746865207a65726f206164646044820152637265737360e01b606482015260840161063d565b61109b8383836113d9565b6110a6600082610e52565b6001600160a01b03831660009081526003602052604081208054600192906110cf908490611e97565b90915550506001600160a01b03821660009081526003602052604081208054600192906110fd908490611dbb565b909155505060008181526002602052604080822080546001600160a01b0319166001600160a01b0386811691821790925591518493918716917fddf252ad1be2c89b69c2b068fc378daa952ba7f163c4a11628f55a4df523b3ef91a4505050565b600a80546001600160a01b038381166001600160a01b0319831681179093556040519116919082907f8be0079c531659141344cd1fd0a4f28419497f9722a3daafe3b4186f6b6457e090600090a35050565b816001600160a01b0316836001600160a01b031614156112125760405162461bcd60e51b815260206004820152601960248201527f4552433732313a20617070726f766520746f2063616c6c657200000000000000604482015260640161063d565b6001600160a01b03838116600081815260056020908152604080832094871680845294825291829020805460ff191686151590811790915591519182527f17307eab39ab6107e8899845ad3d59bd9653f200f220920489ca2b5937696c31910160405180910390a3505050565b6060816112a35750506040805180820190915260018152600360fc1b602082015290565b8160005b81156112cd57806112b781611eae565b91506112c69050600a83611edf565b91506112a7565b60008167ffffffffffffffff8111156112e8576112e8611a79565b6040519080825280601f01601f191660200182016040528015611312576020820181803683370190505b5090505b8415610faf57611327600183611e97565b9150611334600a86611ef3565b61133f906030611dbb565b60f81b81838151811061135457611354611d15565b60200101906001600160f81b031916908160001a905350611376600a86611edf565b9450611316565b610959828260405180602001604052806000815250611491565b6113a2848484610fb7565b6113ae848484846114c4565b610c575760405162461bcd60e51b815260040161063d90611f07565b6060600b805461054590611c54565b6001600160a01b0383166114345761142f81600880546000838152600960205260408120829055600182018355919091527ff3f7a9fe364faab93b216da50a3214154f22a0a2b415b23a84c8169e8b636ee30155565b611457565b816001600160a01b0316836001600160a01b0316146114575761145783826115c2565b6001600160a01b03821661146e576107738161165f565b826001600160a01b0316826001600160a01b03161461077357610773828261170e565b61149b8383611752565b6114a860008484846114c4565b6107735760405162461bcd60e51b815260040161063d90611f07565b60006001600160a01b0384163b156115b757604051630a85bd0160e11b81526001600160a01b0385169063150b7a0290611508903390899088908890600401611f59565b6020604051808303816000875af1925050508015611543575060408051601f3d908101601f1916820190925261154091810190611f96565b60015b61159d573d808015611571576040519150601f19603f3d011682016040523d82523d6000602084013e611576565b606091505b5080516115955760405162461bcd60e51b815260040161063d90611f07565b805181602001fd5b6001600160e01b031916630a85bd0160e11b149050610faf565b506001949350505050565b600060016115cf84610a62565b6115d99190611e97565b60008381526007602052604090205490915080821461162c576001600160a01b03841660009081526006602090815260408083208584528252808320548484528184208190558352600790915290208190555b5060009182526007602090815260408084208490556001600160a01b039094168352600681528383209183525290812055565b60085460009061167190600190611e97565b6000838152600960205260408120546008805493945090928490811061169957611699611d15565b9060005260206000200154905080600883815481106116ba576116ba611d15565b60009182526020808320909101929092558281526009909152604080822084905585825281205560088054806116f2576116f2611fb3565b6001900381819060005260206000200160009055905550505050565b600061171983610a62565b6001600160a01b039093166000908152600660209081526040808320868452825280832085905593825260079052919091209190915550565b6001600160a01b0382166117a85760405162461bcd60e51b815260206004820181905260248201527f4552433732313a206d696e7420746f20746865207a65726f2061646472657373604482015260640161063d565b6000818152600260205260409020546001600160a01b03161561180d5760405162461bcd60e51b815260206004820152601c60248201527f4552433732313a20746f6b656e20616c7265616479206d696e74656400000000604482015260640161063d565b611819600083836113d9565b6001600160a01b0382166000908152600360205260408120805460019290611842908490611dbb565b909155505060008181526002602052604080822080546001600160a01b0319166001600160a01b03861690811790915590518392907fddf252ad1be2c89b69c2b068fc378daa952ba7f163c4a11628f55a4df523b3ef908290a45050565b8280546118ac90611c54565b90600052602060002090601f0160209004810192826118ce5760008555611914565b82601f106118e757805160ff1916838001178555611914565b82800160010185558215611914579182015b828111156119145782518255916020019190600101906118f9565b50611920929150611924565b5090565b5b808211156119205760008155600101611925565b6001600160e01b031981168114610dff57600080fd5b60006020828403121561196157600080fd5b813561196c81611939565b9392505050565b60005b8381101561198e578181015183820152602001611976565b83811115610c575750506000910152565b600081518084526119b7816020860160208601611973565b601f01601f19169290920160200192915050565b60208152600061196c602083018461199f565b6000602082840312156119f057600080fd5b5035919050565b80356001600160a01b0381168114611a0e57600080fd5b919050565b60008060408385031215611a2657600080fd5b611a2f836119f7565b946020939093013593505050565b600080600060608486031215611a5257600080fd5b611a5b846119f7565b9250611a69602085016119f7565b9150604084013590509250925092565b634e487b7160e01b600052604160045260246000fd5b600067ffffffffffffffff80841115611aaa57611aaa611a79565b604051601f8501601f19908116603f01168101908282118183101715611ad257611ad2611a79565b81604052809350858152868686011115611aeb57600080fd5b858560208301376000602087830101525050509392505050565b600060208284031215611b1757600080fd5b813567ffffffffffffffff811115611b2e57600080fd5b8201601f81018413611b3f57600080fd5b610faf84823560208401611a8f565b600060208284031215611b6057600080fd5b61196c826119f7565b60008060408385031215611b7c57600080fd5b611b85836119f7565b915060208301358015158114611b9a57600080fd5b809150509250929050565b60008060008060808587031215611bbb57600080fd5b611bc4856119f7565b9350611bd2602086016119f7565b925060408501359150606085013567ffffffffffffffff811115611bf557600080fd5b8501601f81018713611c0657600080fd5b611c1587823560208401611a8f565b91505092959194509250565b60008060408385031215611c3457600080fd5b611c3d836119f7565b9150611c4b602084016119f7565b90509250929050565b600181811c90821680611c6857607f821691505b60208210811415611c8957634e487b7160e01b600052602260045260246000fd5b50919050565b60208082526031908201527f4552433732313a207472616e736665722063616c6c6572206973206e6f74206f6040820152701ddb995c881b9bdc88185c1c1c9bdd9959607a1b606082015260800190565b6020808252818101527f4f776e61626c653a2063616c6c6572206973206e6f7420746865206f776e6572604082015260600190565b634e487b7160e01b600052603260045260246000fd5b7f596f75722062616c616e6365206973206e6f7420656e6f75676820746f206d6981527f6e7420746865204e46542e20546f74616c2062616c616e636520796f75206e6560208201526532b21034b99d60d11b604082015260008251611d98816046850160208701611973565b9190910160460192915050565b634e487b7160e01b600052601160045260246000fd5b60008219821115611dce57611dce611da5565b500190565b600084516020611de68285838a01611973565b855191840191611df98184848a01611973565b8554920191600090600181811c9080831680611e1657607f831692505b858310811415611e3457634e487b7160e01b85526022600452602485fd5b808015611e485760018114611e5957611e86565b60ff19851688528388019550611e86565b60008b81526020902060005b85811015611e7e5781548a820152908401908801611e65565b505083880195505b50939b9a5050505050505050505050565b600082821015611ea957611ea9611da5565b500390565b6000600019821415611ec257611ec2611da5565b5060010190565b634e487b7160e01b600052601260045260246000fd5b600082611eee57611eee611ec9565b500490565b600082611f0257611f02611ec9565b500690565b60208082526032908201527f4552433732313a207472616e7366657220746f206e6f6e20455243373231526560408201527131b2b4bb32b91034b6b83632b6b2b73a32b960711b606082015260800190565b6001600160a01b0385811682528416602082015260408101839052608060608201819052600090611f8c9083018461199f565b9695505050505050565b600060208284031215611fa857600080fd5b815161196c81611939565b634e487b7160e01b600052603160045260246000fdfea264697066735822122055dfb8f61b38a164a377a1a013716b1ce994a3702811b169c2a6bd8cb22aa85364736f6c634300080c00334f776e61626c653a2063616c6c6572206973206e6f7420746865206f776e6572",
    "sourcePath": "c:/Users/prlab/Desktop/DB_demo_express/public/smartcontracts/CNFT.sol",
    "compiler": {
        "name": "solc",
        "version": "0.8.12+commit.f00d7308"
    },
    "functionHashes": {
        "approve(address,uint256)": "095ea7b3",
        "balanceOf(address)": "70a08231",
        "baseExtension()": "c6682862",
        "baseURI()": "6c0360eb",
        "getApproved(uint256)": "081812fc",
        "goal()": "40193883",
        "isApprovedForAll(address,address)": "e985e9c5",
        "maxBalance()": "73ad468a",
        "mintNFTMeta(address,uint256)": "a445cd75",
        "name()": "06fdde03",
        "owner()": "8da5cb5b",
        "ownerOf(uint256)": "6352211e",
        "renounceOwnership()": "715018a6",
        "safeTransferFrom(address,address,uint256)": "42842e0e",
        "safeTransferFrom(address,address,uint256,bytes)": "b88d4fde",
        "setApprovalForAll(address,bool)": "a22cb465",
        "setBaseExtension(string)": "da3ef23f",
        "setBaseURI(string)": "55f804b3",
        "setGoal(uint256)": "4b29c448",
        "supportsInterface(bytes4)": "01ffc9a7",
        "symbol()": "95d89b41",
        "tokenByIndex(uint256)": "4f6ccce7",
        "tokenOfOwnerByIndex(address,uint256)": "2f745c59",
        "tokenURI(uint256)": "c87b56dd",
        "totalSupply()": "18160ddd",
        "transferFrom(address,address,uint256)": "23b872dd",
        "transferOwnership(address)": "f2fde38b"
    },
    "gasEstimates": {
        "creation": {
            "codeDepositCost": "1638200",
            "executionCost": "infinite",
            "totalCost": "infinite"
        },
        "external": {
            "approve(address,uint256)": "infinite",
            "balanceOf(address)": "2657",
            "baseExtension()": "infinite",
            "baseURI()": "infinite",
            "getApproved(uint256)": "4760",
            "goal()": "2363",
            "isApprovedForAll(address,address)": "infinite",
            "maxBalance()": "2340",
            "mintNFTMeta(address,uint256)": "infinite",
            "name()": "infinite",
            "owner()": "2398",
            "ownerOf(uint256)": "2667",
            "renounceOwnership()": "28207",
            "safeTransferFrom(address,address,uint256)": "infinite",
            "safeTransferFrom(address,address,uint256,bytes)": "infinite",
            "setApprovalForAll(address,bool)": "26797",
            "setBaseExtension(string)": "infinite",
            "setBaseURI(string)": "infinite",
            "setGoal(uint256)": "24509",
            "supportsInterface(bytes4)": "infinite",
            "symbol()": "infinite",
            "tokenByIndex(uint256)": "6782",
            "tokenOfOwnerByIndex(address,uint256)": "4976",
            "tokenURI(uint256)": "infinite",
            "totalSupply()": "2393",
            "transferFrom(address,address,uint256)": "infinite",
            "transferOwnership(address)": "28422"
        },
        "internal": {
            "_baseURI()": "infinite"
        }
    }
}